S00F00004C45445F50574D2E73726563ED
S113A00000E8FF1F6DA10000BBA10000C7A1000074
S113A010000000000000000000000000000000003C
S113A0200000000000000000000000005DA200002D
S113A03000000000000000005FA2000061A2000018
S113A040F5A10000FDA1000005A200000DA2000082
S113A05055A2000055A2000055A2000055A2000020
S113A06015A200001DA2000025A200002DA20000E0
S113A07035A200003DA2000045A2000055A2000048
S113A08055A2000055A2000055A2000055A20000F0
S113A09055A2000055A2000055A200004DA20000E8
S113A0A055A2000055A2000055A2000055A20000D0
S113A0B055A2000055A2000055A2000055A20000C0
S113A0C020480168802252010A430260016880220C
S113A0D092010A430260802040001B490A6802433F
S113A0E00A601A490A6810430860202018490A685F
S113A0F002430A6080218905164A13680B431360E2
S113A100154A13681943116014490A68104308601A
S113A110704700B5002100E0491C8142FCD300BD1A
S113A12080B5FFF7CDFF0E480168802292050A43EF
S113A13002600C48FFF7EDFF0B48016820220A4338
S113A1400260F0E73880044014C0044074D0044036
S113A150D4F00F4014F10F4008F10F40C8F00F4045
S113A1600CF10F40C0C62D00CCF00F4072B604486D
S113A170044901600448804762B60448004700006F
S113A18008ED00E000A00000DDA10000E9A100004E
S113A19000F00DF8002801D000BF00BF00BF00BFD1
S113A1A0002000BF00BFFFF7BBFF00F002F8012052
S113A1B0704780B500F002F801BDFEE70746384657
S113A1C000F002F8FBE7FEE780B500BF00BF024ADB
S113A1D011001820ABBEFBE7260002000020014955
S113A1E0086070470081044000BF00BF00BF00BF8B
S113A1F0FFF7CEFF0048004755A200000048004783
S113A20055A200000048004755A20000004800473E
S113A21055A200000048004755A20000004800472E
S113A22055A200000048004755A20000004800471E
S113A23055A200000048004755A20000004800470E
S113A24055A200000048004755A2000000480047FE
S113A25055A200000048004755A20000FEE7FEE7B3
S105A260FEE713
S113A400FFFFFFFFFFFFFFFFFFFFFFFFFEFFFFFF59
S903A1E972
